:03000000020800F3
:0C080000787FE4F6D8FD758118020847E7
:050A260012097080FEC2
:1009E2007D0C7CA9EF1FAA0670011E4A6006DCFE80
:0409F200DDFC80F0B8
:0109F60022DE
:0C09F7000A08C0F9A4B0999282F8809020
:10090700EF14B40800505490091C75F003A4C58374
:1009170025F0C5837302093402093802093C02092C
:100927004002094402094C02095402095CD2A4801E
:100937000ED2A48012D2A48016D2A4801AC2A4D246
:10094700A3D2A28016C2A4D2A3C2A2800EC2A4C2FE
:10095700A3D2A28006C2A4C2A3C2A274082DF8E63D
:09096700F5807F017E000209E227
:0D0A080048656C6C6F2C776F726C64210078
:040A03000214FFFFDB
:1009700043878075985053890F438920758BF37591
:100980008DF3C2ABD28ED2AFC2AC5389F043890192
:0F099000D28DD28C758CFC758A17D2A9C2B92270
:080A1E008F993099FDC2992265
:10099F008B168A178918AB16AA17A9181209C9FF3F
:1009AF006017120A1E7F027E001209E274012518D9
:0A09BF00F518E43517F51780DD2266
:03000B0002088C5C
:10088C00C0E0C0F0C083C082C0D075D000C000C032
:10089C0001C002C003C004C005C006C0070513E5B3
:1008AC001370020512640A45127035E5156408458B
:1008BC00147006F514F51580080515E5157002057C
:1008CC0014AF15A8077401088002C333D8FCF4F5E3
:1008DC00A07512007513007BFF7A0A790812099F24
:1008EC00D007D006D005D004D003D002D001D00060
:0B08FC00D0D0D082D083D0F0D0E0320A
:03002300020A15B9
:090A150030980575A00FC298325B
:10080C00020A26E493A3F8E493A34003F68001F2D2
:10081C0008DFF48029E493A3F85407240CC8C333ED
:10082C00C4540F4420C8834004F456800146F6DFBC
:10083C00E4800B01020408102040809009F7E47E4C
:10084C00019360BCA3FF543F30E509541FFEE493B1
:10085C00A360010ECF54C025E060A840B8E493A378
:10086C00FAE493A3F8E493A3C8C582C8CAC583CAA3
:10087C00F0A3C8C582C8CAC583CADFE9DEE780BE5B
:010A070000EE
:1009C900BB010689828A83E0225002E722BBFE022C
:0909D900E32289828A83E493225F
:00000001FF
