:03000000020800F3
:0C080000787FE4F6D8FD758120020847DF
:0D09D80048656C6C6F2C776F726C642100A9
:10094E001208F5AD15AC147F0212088C3000F47B42
:0C095E00FF7A0979D8120924C20080E752
:1009B4007D0C7CA9EF1FAA0670011E4A6006DCFEAE
:0409C400DDFC80F0E6
:0109C800220C
:0C09C9000A083F065B4F666D7D077F6FDC
:10088C00EF14B4080050549008A175F003A4C5836C
:10089C0025F0C583730208B90208BD0208C102081D
:1008AC00C50208C90208D10208D90208E1D2A48005
:1008BC000ED2A48012D2A48016D2A4801AC2A4D2C2
:1008CC00A3D2A28016C2A4D2A3C2A2800EC2A4C27A
:1008DC00A3D2A28006C2A4C2A3C2A274082DF8E6B9
:0908EC00F5807F017E000209B4D1
:0209D500C1005F
:1008F50043878075985053890F4389205389F04366
:100905008901758BF3758DF3C2ABD28ED2AFC2ACB4
:0F091500D28DD28C758CFC758A18D2A9C2B922EA
:0809E5008F993099FDC299229F
:100924008B168A178918AB16AA17A918120983FF00
:1009340060171209E57F017E001209B474012518BD
:0A094400F518E43517F51780DD22E1
:03000B0002096A7D
:10096A00C0E00513E51370020512640A4512700609
:09097A00D200F512F513D0E032B1
:0300230002099C33
:10099C00C0D075D000C007309809AF997514008F7E
:0809AC0015C298D007D0D0322B
:10080C0002094EE493A3F8E493A34003F68001F2AB
:10081C0008DFF48029E493A3F85407240CC8C333ED
:10082C00C4540F4420C8834004F456800146F6DFBC
:10083C00E4800B01020408102040809009C9E47E7A
:10084C00019360BCA3FF543F30E509541FFEE493B1
:10085C00A360010ECF54C025E060A840B8E493A378
:10086C00FAE493A3F8E493A3C8C582C8CAC583CAA3
:10087C00F0A3C8C582C8CAC583CADFE9DEE780BE5B
:0109D700001F
:10098300BB010689828A83E0225002E722BBFE0272
:09099300E32289828A83E49322A5
:00000001FF
